{
    "contractName": "Creature",
    "abi": [
        {
            "inputs": [
                {
                    "internalType": "address",
                    "name": "_proxyRegistryAddress",
                    "type": "address"
                }
            ],
            "payable": false,
            "stateMutability": "nonpayable",
            "type": "constructor"
        },
        {
            "anonymous": false,
            "inputs": [
                {
                    "indexed": true,
                    "internalType": "address",
                    "name": "owner",
                    "type": "address"
                },
                {
                    "indexed": true,
                    "internalType": "address",
                    "name": "approved",
                    "type": "address"
                },
                {
                    "indexed": true,
                    "internalType": "uint256",
                    "name": "tokenId",
                    "type": "uint256"
                }
            ],
            "name": "Approval",
            "type": "event"
        },
        {
            "anonymous": false,
            "inputs": [
                {
                    "indexed": true,
                    "internalType": "address",
                    "name": "owner",
                    "type": "address"
                },
                {
                    "indexed": true,
                    "internalType": "address",
                    "name": "operator",
                    "type": "address"
                },
                {
                    "indexed": false,
                    "internalType": "bool",
                    "name": "approved",
                    "type": "bool"
                }
            ],
            "name": "ApprovalForAll",
            "type": "event"
        },
        {
            "anonymous": false,
            "inputs": [
                {
                    "indexed": true,
                    "internalType": "address",
                    "name": "previousOwner",
                    "type": "address"
                },
                {
                    "indexed": true,
                    "internalType": "address",
                    "name": "newOwner",
                    "type": "address"
                }
            ],
            "name": "OwnershipTransferred",
            "type": "event"
        },
        {
            "anonymous": false,
            "inputs": [
                {
                    "indexed": true,
                    "internalType": "address",
                    "name": "from",
                    "type": "address"
                },
                {
                    "indexed": true,
                    "internalType": "address",
                    "name": "to",
                    "type": "address"
                },
                {
                    "indexed": true,
                    "internalType": "uint256",
                    "name": "tokenId",
                    "type": "uint256"
                }
            ],
            "name": "Transfer",
            "type": "event"
        },
        {
            "constant": false,
            "inputs": [
                {
                    "internalType": "address",
                    "name": "to",
                    "type": "address"
                },
                {
                    "internalType": "uint256",
                    "name": "tokenId",
                    "type": "uint256"
                }
            ],
            "name": "approve",
            "outputs": [],
            "payable": false,
            "stateMutability": "nonpayable",
            "type": "function"
        },
        {
            "constant": true,
            "inputs": [
                {
                    "internalType": "address",
                    "name": "owner",
                    "type": "address"
                }
            ],
            "name": "balanceOf",
            "outputs": [
                {
                    "internalType": "uint256",
                    "name": "",
                    "type": "uint256"
                }
            ],
            "payable": false,
            "stateMutability": "view",
            "type": "function"
        },
        {
            "constant": true,
            "inputs": [],
            "name": "baseURI",
            "outputs": [
                {
                    "internalType": "string",
                    "name": "",
                    "type": "string"
                }
            ],
            "payable": false,
            "stateMutability": "view",
            "type": "function"
        },
        {
            "constant": true,
            "inputs": [
                {
                    "internalType": "uint256",
                    "name": "tokenId",
                    "type": "uint256"
                }
            ],
            "name": "getApproved",
            "outputs": [
                {
                    "internalType": "address",
                    "name": "",
                    "type": "address"
                }
            ],
            "payable": false,
            "stateMutability": "view",
            "type": "function"
        },
        {
            "constant": true,
            "inputs": [
                {
                    "internalType": "address",
                    "name": "owner",
                    "type": "address"
                },
                {
                    "internalType": "address",
                    "name": "operator",
                    "type": "address"
                }
            ],
            "name": "isApprovedForAll",
            "outputs": [
                {
                    "internalType": "bool",
                    "name": "",
                    "type": "bool"
                }
            ],
            "payable": false,
            "stateMutability": "view",
            "type": "function"
        },
        {
            "constant": true,
            "inputs": [],
            "name": "isOwner",
            "outputs": [
                {
                    "internalType": "bool",
                    "name": "",
                    "type": "bool"
                }
            ],
            "payable": false,
            "stateMutability": "view",
            "type": "function"
        },
        {
            "constant": false,
            "inputs": [
                {
                    "internalType": "address",
                    "name": "_to",
                    "type": "address"
                }
            ],
            "name": "mintTo",
            "outputs": [],
            "payable": false,
            "stateMutability": "nonpayable",
            "type": "function"
        },
        {
            "constant": true,
            "inputs": [],
            "name": "name",
            "outputs": [
                {
                    "internalType": "string",
                    "name": "",
                    "type": "string"
                }
            ],
            "payable": false,
            "stateMutability": "view",
            "type": "function"
        },
        {
            "constant": true,
            "inputs": [],
            "name": "owner",
            "outputs": [
                {
                    "internalType": "address",
                    "name": "",
                    "type": "address"
                }
            ],
            "payable": false,
            "stateMutability": "view",
            "type": "function"
        },
        {
            "constant": true,
            "inputs": [
                {
                    "internalType": "uint256",
                    "name": "tokenId",
                    "type": "uint256"
                }
            ],
            "name": "ownerOf",
            "outputs": [
                {
                    "internalType": "address",
                    "name": "",
                    "type": "address"
                }
            ],
            "payable": false,
            "stateMutability": "view",
            "type": "function"
        },
        {
            "constant": false,
            "inputs": [],
            "name": "renounceOwnership",
            "outputs": [],
            "payable": false,
            "stateMutability": "nonpayable",
            "type": "function"
        },
        {
            "constant": false,
            "inputs": [
                {
                    "internalType": "address",
                    "name": "from",
                    "type": "address"
                },
                {
                    "internalType": "address",
                    "name": "to",
                    "type": "address"
                },
                {
                    "internalType": "uint256",
                    "name": "tokenId",
                    "type": "uint256"
                }
            ],
            "name": "safeTransferFrom",
            "outputs": [],
            "payable": false,
            "stateMutability": "nonpayable",
            "type": "function"
        },
        {
            "constant": false,
            "inputs": [
                {
                    "internalType": "address",
                    "name": "from",
                    "type": "address"
                },
                {
                    "internalType": "address",
                    "name": "to",
                    "type": "address"
                },
                {
                    "internalType": "uint256",
                    "name": "tokenId",
                    "type": "uint256"
                },
                {
                    "internalType": "bytes",
                    "name": "_data",
                    "type": "bytes"
                }
            ],
            "name": "safeTransferFrom",
            "outputs": [],
            "payable": false,
            "stateMutability": "nonpayable",
            "type": "function"
        },
        {
            "constant": false,
            "inputs": [
                {
                    "internalType": "address",
                    "name": "to",
                    "type": "address"
                },
                {
                    "internalType": "bool",
                    "name": "approved",
                    "type": "bool"
                }
            ],
            "name": "setApprovalForAll",
            "outputs": [],
            "payable": false,
            "stateMutability": "nonpayable",
            "type": "function"
        },
        {
            "constant": true,
            "inputs": [
                {
                    "internalType": "bytes4",
                    "name": "interfaceId",
                    "type": "bytes4"
                }
            ],
            "name": "supportsInterface",
            "outputs": [
                {
                    "internalType": "bool",
                    "name": "",
                    "type": "bool"
                }
            ],
            "payable": false,
            "stateMutability": "view",
            "type": "function"
        },
        {
            "constant": true,
            "inputs": [],
            "name": "symbol",
            "outputs": [
                {
                    "internalType": "string",
                    "name": "",
                    "type": "string"
                }
            ],
            "payable": false,
            "stateMutability": "view",
            "type": "function"
        },
        {
            "constant": true,
            "inputs": [
                {
                    "internalType": "uint256",
                    "name": "index",
                    "type": "uint256"
                }
            ],
            "name": "tokenByIndex",
            "outputs": [
                {
                    "internalType": "uint256",
                    "name": "",
                    "type": "uint256"
                }
            ],
            "payable": false,
            "stateMutability": "view",
            "type": "function"
        },
        {
            "constant": true,
            "inputs": [
                {
                    "internalType": "address",
                    "name": "owner",
                    "type": "address"
                },
                {
                    "internalType": "uint256",
                    "name": "index",
                    "type": "uint256"
                }
            ],
            "name": "tokenOfOwnerByIndex",
            "outputs": [
                {
                    "internalType": "uint256",
                    "name": "",
                    "type": "uint256"
                }
            ],
            "payable": false,
            "stateMutability": "view",
            "type": "function"
        },
        {
            "constant": true,
            "inputs": [
                {
                    "internalType": "uint256",
                    "name": "_tokenId",
                    "type": "uint256"
                }
            ],
            "name": "tokenURI",
            "outputs": [
                {
                    "internalType": "string",
                    "name": "",
                    "type": "string"
                }
            ],
            "payable": false,
            "stateMutability": "view",
            "type": "function"
        },
        {
            "constant": true,
            "inputs": [],
            "name": "totalSupply",
            "outputs": [
                {
                    "internalType": "uint256",
                    "name": "",
                    "type": "uint256"
                }
            ],
            "payable": false,
            "stateMutability": "view",
            "type": "function"
        },
        {
            "constant": false,
            "inputs": [
                {
                    "internalType": "address",
                    "name": "from",
                    "type": "address"
                },
                {
                    "internalType": "address",
                    "name": "to",
                    "type": "address"
                },
                {
                    "internalType": "uint256",
                    "name": "tokenId",
                    "type": "uint256"
                }
            ],
            "name": "transferFrom",
            "outputs": [],
            "payable": false,
            "stateMutability": "nonpayable",
            "type": "function"
        },
        {
            "constant": false,
            "inputs": [
                {
                    "internalType": "address",
                    "name": "newOwner",
                    "type": "address"
                }
            ],
            "name": "transferOwnership",
            "outputs": [],
            "payable": false,
            "stateMutability": "nonpayable",
            "type": "function"
        },
        {
            "constant": true,
            "inputs": [],
            "name": "baseTokenURI",
            "outputs": [
                {
                    "internalType": "string",
                    "name": "",
                    "type": "string"
                }
            ],
            "payable": false,
            "stateMutability": "pure",
            "type": "function"
        },
        {
            "constant": true,
            "inputs": [],
            "name": "contractURI",
            "outputs": [
                {
                    "internalType": "string",
                    "name": "",
                    "type": "string"
                }
            ],
            "payable": false,
            "stateMutability": "pure",
            "type": "function"
        }
    ],
    "bytecode": "0x60806040526000600f553480156200001657600080fd5b50604051620036c7380380620036c7833981810160405260208110156200003c57600080fd5b81019080805190602001909291905050506040518060400160405280600881526020017f43726561747572650000000000000000000000000000000000000000000000008152506040518060400160405280600381526020017f4f534300000000000000000000000000000000000000000000000000000000008152508282828181620000d66301ffc9a760e01b6200025060201b60201c565b620000ee6380ac58cd60e01b6200025060201b60201c565b6200010663780e9d6360e01b6200025060201b60201c565b81600990805190602001906200011e92919062000361565b5080600a90805190602001906200013792919062000361565b5062000150635b5e139f60e01b6200025060201b60201c565b505050506000620001666200035960201b60201c565b905080600d60006101000a81548173ffffffffffffffffffffffffffffffffffffffff021916908373ffffffffffffffffffffffffffffffffffffffff1602179055508073ffffffffffffffffffffffffffffffffffffffff16600073ffffffffffffffffffffffffffffffffffffffff167f8be0079c531659141344cd1fd0a4f28419497f9722a3daafe3b4186f6b6457e060405160405180910390a35080600e60006101000a81548173ffffffffffffffffffffffffffffffffffffffff021916908373ffffffffffffffffffffffffffffffffffffffff1602179055505050505062000410565b63ffffffff60e01b817bffffffffffffffffffffffffffffffffffffffffffffffffffffffff19161415620002ed576040517f08c379a000000000000000000000000000000000000000000000000000000000815260040180806020018281038252601c8152602001807f4552433136353a20696e76616c696420696e746572666163652069640000000081525060200191505060405180910390fd5b6001600080837bffffffffffffffffffffffffffffffffffffffffffffffffffffffff19167bffffffffffffffffffffffffffffffffffffffffffffffffffffffff1916815260200190815260200160002060006101000a81548160ff02191690831515021790555050565b600033905090565b828054600181600116156101000203166002900490600052602060002090601f016020900481019282601f10620003a457805160ff1916838001178555620003d5565b82800160010185558215620003d5579182015b82811115620003d4578251825591602001919060010190620003b7565b5b509050620003e49190620003e8565b5090565b6200040d91905b8082111562000409576000816000905550600101620003ef565b5090565b90565b6132a780620004206000396000f3fe608060405234801561001057600080fd5b50600436106101585760003560e01c8063715018a6116100c3578063b88d4fde1161007c578063b88d4fde14610775578063c87b56dd1461087a578063d547cfb714610921578063e8a3d485146109a4578063e985e9c514610a27578063f2fde38b14610aa357610158565b8063715018a6146105e8578063755edd17146105f25780638da5cb5b146106365780638f32d59b1461068057806395d89b41146106a2578063a22cb4651461072557610158565b80632f745c59116101155780632f745c591461038d57806342842e0e146103ef5780634f6ccce71461045d5780636352211e1461049f5780636c0360eb1461050d57806370a082311461059057610158565b806301ffc9a71461015d57806306fdde03146101c2578063081812fc14610245578063095ea7b3146102b357806318160ddd1461030157806323b872dd1461031f575b600080fd5b6101a86004803603602081101561017357600080fd5b8101908080357bffffffffffffffffffffffffffffffffffffffffffffffffffffffff19169060200190929190505050610ae7565b604051808215151515815260200191505060405180910390f35b6101ca610b4e565b6040518080602001828103825283818151815260200191508051906020019080838360005b8381101561020a5780820151818401526020810190506101ef565b50505050905090810190601f1680156102375780820380516001836020036101000a031916815260200191505b509250505060405180910390f35b6102716004803603602081101561025b57600080fd5b8101908080359060200190929190505050610bf0565b604051808273ffffffffffffffffffffffffffffffffffffffff1673ffffffffffffffffffffffffffffffffffffffff16815260200191505060405180910390f35b6102ff600480360360408110156102c957600080fd5b81019080803573ffffffffffffffffffffffffffffffffffffffff16906020019092919080359060200190929190505050610c8b565b005b610309610e72565b6040518082815260200191505060405180910390f35b61038b6004803603606081101561033557600080fd5b81019080803573ffffffffffffffffffffffffffffffffffffffff169060200190929190803573ffffffffffffffffffffffffffffffffffffffff16906020019092919080359060200190929190505050610e7f565b005b6103d9600480360360408110156103a357600080fd5b81019080803573ffffffffffffffffffffffffffffffffffffffff16906020019092919080359060200190929190505050610ef5565b6040518082815260200191505060405180910390f35b61045b6004803603606081101561040557600080fd5b81019080803573ffffffffffffffffffffffffffffffffffffffff169060200190929190803573ffffffffffffffffffffffffffffffffffffffff16906020019092919080359060200190929190505050610fb4565b005b6104896004803603602081101561047357600080fd5b8101908080359060200190929190505050610fd4565b6040518082815260200191505060405180910390f35b6104cb600480360360208110156104b557600080fd5b8101908080359060200190929190505050611054565b604051808273ffffffffffffffffffffffffffffffffffffffff1673ffffffffffffffffffffffffffffffffffffffff16815260200191505060405180910390f35b61051561111c565b6040518080602001828103825283818151815260200191508051906020019080838360005b8381101561055557808201518184015260208101905061053a565b50505050905090810190601f1680156105825780820380516001836020036101000a031916815260200191505b509250505060405180910390f35b6105d2600480360360208110156105a657600080fd5b81019080803573ffffffffffffffffffffffffffffffffffffffff1690602001909291905050506111be565b6040518082815260200191505060405180910390f35b6105f0611293565b005b6106346004803603602081101561060857600080fd5b81019080803573ffffffffffffffffffffffffffffffffffffffff1690602001909291905050506113ce565b005b61063e61146a565b604051808273ffffffffffffffffffffffffffffffffffffffff1673ffffffffffffffffffffffffffffffffffffffff16815260200191505060405180910390f35b610688611494565b604051808215151515815260200191505060405180910390f35b6106aa6114f3565b6040518080602001828103825283818151815260200191508051906020019080838360005b838110156106ea5780820151818401526020810190506106cf565b50505050905090810190601f1680156107175780820380516001836020036101000a031916815260200191505b509250505060405180910390f35b6107736004803603604081101561073b57600080fd5b81019080803573ffffffffffffffffffffffffffffffffffffffff169060200190929190803515159060200190929190505050611595565b005b6108786004803603608081101561078b57600080fd5b81019080803573ffffffffffffffffffffffffffffffffffffffff169060200190929190803573ffffffffffffffffffffffffffffffffffffffff16906020019092919080359060200190929190803590602001906401000000008111156107f257600080fd5b82018360208201111561080457600080fd5b8035906020019184600183028401116401000000008311171561082657600080fd5b91908080601f016020809104026020016040519081016040528093929190818152602001838380828437600081840152601f19601f82011690508083019250505050505050919291929050505061174d565b005b6108a66004803603602081101561089057600080fd5b81019080803590602001909291905050506117c5565b6040518080602001828103825283818151815260200191508051906020019080838360005b838110156108e65780820151818401526020810190506108cb565b50505050905090810190601f1680156109135780820380516001836020036101000a031916815260200191505b509250505060405180910390f35b6109296117e7565b6040518080602001828103825283818151815260200191508051906020019080838360005b8381101561096957808201518184015260208101905061094e565b50505050905090810190601f1680156109965780820380516001836020036101000a031916815260200191505b509250505060405180910390f35b6109ac611807565b6040518080602001828103825283818151815260200191508051906020019080838360005b838110156109ec5780820151818401526020810190506109d1565b50505050905090810190601f168015610a195780820380516001836020036101000a031916815260200191505b509250505060405180910390f35b610a8960048036036040811015610a3d57600080fd5b81019080803573ffffffffffffffffffffffffffffffffffffffff169060200190929190803573ffffffffffffffffffffffffffffffffffffffff169060200190929190505050611827565b604051808215151515815260200191505060405180910390f35b610ae560048036036020811015610ab957600080fd5b81019080803573ffffffffffffffffffffffffffffffffffffffff169060200190929190505050611958565b005b6000806000837bffffffffffffffffffffffffffffffffffffffffffffffffffffffff19167bffffffffffffffffffffffffffffffffffffffffffffffffffffffff1916815260200190815260200160002060009054906101000a900460ff169050919050565b606060098054600181600116156101000203166002900480601f016020809104026020016040519081016040528092919081815260200182805460018160011615610100020316600290048015610be65780601f10610bbb57610100808354040283529160200191610be6565b820191906000526020600020905b815481529060010190602001808311610bc957829003601f168201915b5050505050905090565b6000610bfb826119de565b610c50576040517f08c379a000000000000000000000000000000000000000000000000000000000815260040180806020018281038252602c8152602001806131a0602c913960400191505060405180910390fd5b6002600083815260200190815260200160002060009054906101000a900473ffffffffffffffffffffffffffffffffffffffff169050919050565b6000610c9682611054565b90508073ffffffffffffffffffffffffffffffffffffffff168373ffffffffffffffffffffffffffffffffffffffff161415610d1d576040517f08c379a00000000000000000000000000000000000000000000000000000000081526004018080602001828103825260218152602001806131f56021913960400191505060405180910390fd5b8073ffffffffffffffffffffffffffffffffffffffff16610d3c611a50565b73ffffffffffffffffffffffffffffffffffffffff161480610d6b5750610d6a81610d65611a50565b611827565b5b610dc0576040517f08c379a00000000000000000000000000000000000000000000000000000000081526004018080602001828103825260388152602001806131156038913960400191505060405180910390fd5b826002600084815260200190815260200160002060006101000a81548173ffffffffffffffffffffffffffffffffffffffff021916908373ffffffffffffffffffffffffffffffffffffffff160217905550818373ffffffffffffffffffffffffffffffffffffffff168273ffffffffffffffffffffffffffffffffffffffff167f8c5be1e5ebec7d5bd14f71427d1e84f3dd0314c0f7b2291e5b200ac8c7c3b92560405160405180910390a4505050565b6000600780549050905090565b610e90610e8a611a50565b82611a58565b610ee5576040517f08c379a00000000000000000000000000000000000000000000000000000000081526004018080602001828103825260318152602001806132166031913960400191505060405180910390fd5b610ef0838383611b4c565b505050565b6000610f00836111be565b8210610f57576040517f08c379a000000000000000000000000000000000000000000000000000000000815260040180806020018281038252602b815260200180613014602b913960400191505060405180910390fd5b600560008473ffffffffffffffffffffffffffffffffffffffff1673ffffffffffffffffffffffffffffffffffffffff1681526020019081526020016000208281548110610fa157fe5b9060005260206000200154905092915050565b610fcf8383836040518060200160405280600081525061174d565b505050565b6000610fde610e72565b8210611035576040517f08c379a000000000000000000000000000000000000000000000000000000000815260040180806020018281038252602c815260200180613247602c913960400191505060405180910390fd5b6007828154811061104257fe5b90600052602060002001549050919050565b6000806001600084815260200190815260200160002060009054906101000a900473ffffffffffffffffffffffffffffffffffffffff169050600073ffffffffffffffffffffffffffffffffffffffff168173ffffffffffffffffffffffffffffffffffffffff161415611113576040517f08c379a00000000000000000000000000000000000000000000000000000000081526004018080602001828103825260298152602001806131776029913960400191505060405180910390fd5b80915050919050565b6060600b8054600181600116156101000203166002900480601f0160208091040260200160405190810160405280929190818152602001828054600181600116156101000203166002900480156111b45780601f10611189576101008083540402835291602001916111b4565b820191906000526020600020905b81548152906001019060200180831161119757829003601f168201915b5050505050905090565b60008073ffffffffffffffffffffffffffffffffffffffff168273ffffffffffffffffffffffffffffffffffffffff161415611245576040517f08c379a000000000000000000000000000000000000000000000000000000000815260040180806020018281038252602a81526020018061314d602a913960400191505060405180910390fd5b61128c600360008473ffffffffffffffffffffffffffffffffffffffff1673ffffffffffffffffffffffffffffffffffffffff168152602001908152602001600020611b70565b9050919050565b61129b611494565b61130d576040517f08c379a00000000000000000000000000000000000000000000000000000000081526004018080602001828103825260208152602001807f4f776e61626c653a2063616c6c6572206973206e6f7420746865206f776e657281525060200191505060405180910390fd5b600073ffffffffffffffffffffffffffffffffffffffff16600d60009054906101000a900473ffffffffffffffffffffffffffffffffffffffff1673ffffffffffffffffffffffffffffffffffffffff167f8be0079c531659141344cd1fd0a4f28419497f9722a3daafe3b4186f6b6457e060405160405180910390a36000600d60006101000a81548173ffffffffffffffffffffffffffffffffffffffff021916908373ffffffffffffffffffffffffffffffffffffffff160217905550565b6113d6611494565b611448576040517f08c379a00000000000000000000000000000000000000000000000000000000081526004018080602001828103825260208152602001807f4f776e61626c653a2063616c6c6572206973206e6f7420746865206f776e657281525060200191505060405180910390fd5b6000611452611b7e565b905061145e8282611b9b565b611466611bbc565b5050565b6000600d60009054906101000a900473ffffffffffffffffffffffffffffffffffffffff16905090565b6000600d60009054906101000a900473ffffffffffffffffffffffffffffffffffffffff1673ffffffffffffffffffffffffffffffffffffffff166114d7611a50565b73ffffffffffffffffffffffffffffffffffffffff1614905090565b6060600a8054600181600116156101000203166002900480601f01602080910402602001604051908101604052809291908181526020018280546001816001161561010002031660029004801561158b5780601f106115605761010080835404028352916020019161158b565b820191906000526020600020905b81548152906001019060200180831161156e57829003601f168201915b5050505050905090565b61159d611a50565b73ffffffffffffffffffffffffffffffffffffffff168273ffffffffffffffffffffffffffffffffffffffff16141561163e576040517f08c379a00000000000000000000000000000000000000000000000000000000081526004018080602001828103825260198152602001807f4552433732313a20617070726f766520746f2063616c6c65720000000000000081525060200191505060405180910390fd5b806004600061164b611a50565b73ffffffffffffffffffffffffffffffffffffffff1673ffffffffffffffffffffffffffffffffffffffff16815260200190815260200160002060008473ffffffffffffffffffffffffffffffffffffffff1673ffffffffffffffffffffffffffffffffffffffff16815260200190815260200160002060006101000a81548160ff0219169083151502179055508173ffffffffffffffffffffffffffffffffffffffff166116f8611a50565b73ffffffffffffffffffffffffffffffffffffffff167f17307eab39ab6107e8899845ad3d59bd9653f200f220920489ca2b5937696c3183604051808215151515815260200191505060405180910390a35050565b61175e611758611a50565b83611a58565b6117b3576040517f08c379a00000000000000000000000000000000000000000000000000000000081526004018080602001828103825260318152602001806132166031913960400191505060405180910390fd5b6117bf84848484611bd0565b50505050565b60606117e06117d26117e7565b6117db84611c42565b611d6f565b9050919050565b60606040518060600160405280602e8152602001613097602e9139905090565b60606040518060600160405280603b8152602001612fd9603b9139905090565b600080600e60009054906101000a900473ffffffffffffffffffffffffffffffffffffffff1690508273ffffffffffffffffffffffffffffffffffffffff168173ffffffffffffffffffffffffffffffffffffffff1663c4552791866040518263ffffffff1660e01b8152600401808273ffffffffffffffffffffffffffffffffffffffff1673ffffffffffffffffffffffffffffffffffffffff16815260200191505060206040518083038186803b1580156118e357600080fd5b505afa1580156118f7573d6000803e3d6000fd5b505050506040513d602081101561190d57600080fd5b810190808051906020019092919050505073ffffffffffffffffffffffffffffffffffffffff161415611944576001915050611952565b61194e8484611db3565b9150505b92915050565b611960611494565b6119d2576040517f08c379a00000000000000000000000000000000000000000000000000000000081526004018080602001828103825260208152602001807f4f776e61626c653a2063616c6c6572206973206e6f7420746865206f776e657281525060200191505060405180910390fd5b6119db81611e47565b50565b6000806001600084815260200190815260200160002060009054906101000a900473ffffffffffffffffffffffffffffffffffffffff169050600073ffffffffffffffffffffffffffffffffffffffff168173ffffffffffffffffffffffffffffffffffffffff161415915050919050565b600033905090565b6000611a63826119de565b611ab8576040517f08c379a000000000000000000000000000000000000000000000000000000000815260040180806020018281038252602c8152602001806130e9602c913960400191505060405180910390fd5b6000611ac383611054565b90508073ffffffffffffffffffffffffffffffffffffffff168473ffffffffffffffffffffffffffffffffffffffff161480611b3257508373ffffffffffffffffffffffffffffffffffffffff16611b1a84610bf0565b73ffffffffffffffffffffffffffffffffffffffff16145b80611b435750611b428185611827565b5b91505092915050565b611b57838383611f8d565b611b6183826121e8565b611b6b8282612386565b505050565b600081600001549050919050565b6000611b966001600f5461244d90919063ffffffff16565b905090565b611ba582826124d5565b611baf8282612386565b611bb8816126ed565b5050565b600f60008154809291906001019190505550565b611bdb848484611b4c565b611be784848484612739565b611c3c576040517f08c379a000000000000000000000000000000000000000000000000000000000815260040180806020018281038252603281526020018061303f6032913960400191505060405180910390fd5b50505050565b60606000821415611c8a576040518060400160405280600181526020017f30000000000000000000000000000000000000000000000000000000000000008152509050611d6a565b600082905060005b60008214611cb4578080600101915050600a8281611cac57fe5b049150611c92565b6060816040519080825280601f01601f191660200182016040528015611ce95781602001600182028038833980820191505090505b50905060006001830390505b60008614611d6257600a8681611d0757fe5b0660300160f81b82828060019003935081518110611d2157fe5b60200101907effffffffffffffffffffffffffffffffffffffffffffffffffffffffffffff1916908160001a905350600a8681611d5a57fe5b049550611cf5565b819450505050505b919050565b6060611dab8383604051806020016040528060008152506040518060200160405280600081525060405180602001604052806000815250612a75565b905092915050565b6000600460008473ffffffffffffffffffffffffffffffffffffffff1673ffffffffffffffffffffffffffffffffffffffff16815260200190815260200160002060008373ffffffffffffffffffffffffffffffffffffffff1673ffffffffffffffffffffffffffffffffffffffff16815260200190815260200160002060009054906101000a900460ff16905092915050565b600073ffffffffffffffffffffffffffffffffffffffff168173ffffffffffffffffffffffffffffffffffffffff161415611ecd576040517f08c379a00000000000000000000000000000000000000000000000000000000081526004018080602001828103825260268152602001806130716026913960400191505060405180910390fd5b8073ffffffffffffffffffffffffffffffffffffffff16600d60009054906101000a900473ffffffffffffffffffffffffffffffffffffffff1673ffffffffffffffffffffffffffffffffffffffff167f8be0079c531659141344cd1fd0a4f28419497f9722a3daafe3b4186f6b6457e060405160405180910390a380600d60006101000a81548173ffffffffffffffffffffffffffffffffffffffff021916908373ffffffffffffffffffffffffffffffffffffffff16021790555050565b8273ffffffffffffffffffffffffffffffffffffffff16611fad82611054565b73ffffffffffffffffffffffffffffffffffffffff1614612019576040517f08c379a00000000000000000000000000000000000000000000000000000000081526004018080602001828103825260298152602001806131cc6029913960400191505060405180910390fd5b600073ffffffffffffffffffffffffffffffffffffffff168273ffffffffffffffffffffffffffffffffffffffff16141561209f576040517f08c379a00000000000000000000000000000000000000000000000000000000081526004018080602001828103825260248152602001806130c56024913960400191505060405180910390fd5b6120a881612d3b565b6120ef600360008573ffffffffffffffffffffffffffffffffffffffff1673ffffffffffffffffffffffffffffffffffffffff168152602001908152602001600020612df9565b612136600360008473ffffffffffffffffffffffffffffffffffffffff1673ffffffffffffffffffffffffffffffffffffffff168152602001908152602001600020612e1c565b816001600083815260200190815260200160002060006101000a81548173ffffffffffffffffffffffffffffffffffffffff021916908373ffffffffffffffffffffffffffffffffffffffff160217905550808273ffffffffffffffffffffffffffffffffffffffff168473ffffffffffffffffffffffffffffffffffffffff167fddf252ad1be2c89b69c2b068fc378daa952ba7f163c4a11628f55a4df523b3ef60405160405180910390a4505050565b60006122406001600560008673ffffffffffffffffffffffffffffffffffffffff1673ffffffffffffffffffffffffffffffffffffffff16815260200190815260200160002080549050612e3290919063ffffffff16565b905060006006600084815260200190815260200160002054905081811461232d576000600560008673ffffffffffffffffffffffffffffffffffffffff1673ffffffffffffffffffffffffffffffffffffffff16815260200190815260200160002083815481106122ad57fe5b9060005260206000200154905080600560008773ffffffffffffffffffffffffffffffffffffffff1673ffffffffffffffffffffffffffffffffffffffff168152602001908152602001600020838154811061230557fe5b9060005260206000200181905550816006600083815260200190815260200160002081905550505b600560008573ffffffffffffffffffffffffffffffffffffffff1673ffffffffffffffffffffffffffffffffffffffff16815260200190815260200160002080548091906001900361237f9190612f87565b5050505050565b600560008373ffffffffffffffffffffffffffffffffffffffff1673ffffffffffffffffffffffffffffffffffffffff168152602001908152602001600020805490506006600083815260200190815260200160002081905550600560008373ffffffffffffffffffffffffffffffffffffffff1673ffffffffffffffffffffffffffffffffffffffff1681526020019081526020016000208190806001815401808255809150509060018203906000526020600020016000909192909190915055505050565b6000808284019050838110156124cb576040517f08c379a000000000000000000000000000000000000000000000000000000000815260040180806020018281038252601b8152602001807f536166654d6174683a206164646974696f6e206f766572666c6f77000000000081525060200191505060405180910390fd5b8091505092915050565b600073ffffffffffffffffffffffffffffffffffffffff168273ffffffffffffffffffffffffffffffffffffffff161415612578576040517f08c379a00000000000000000000000000000000000000000000000000000000081526004018080602001828103825260208152602001807f4552433732313a206d696e7420746f20746865207a65726f206164647265737381525060200191505060405180910390fd5b612581816119de565b156125f4576040517f08c379a000000000000000000000000000000000000000000000000000000000815260040180806020018281038252601c8152602001807f4552433732313a20746f6b656e20616c7265616479206d696e7465640000000081525060200191505060405180910390fd5b816001600083815260200190815260200160002060006101000a81548173ffffffffffffffffffffffffffffffffffffffff021916908373ffffffffffffffffffffffffffffffffffffffff16021790555061268d600360008473ffffffffffffffffffffffffffffffffffffffff1673ffffffffffffffffffffffffffffffffffffffff168152602001908152602001600020612e1c565b808273ffffffffffffffffffffffffffffffffffffffff16600073ffffffffffffffffffffffffffffffffffffffff167fddf252ad1be2c89b69c2b068fc378daa952ba7f163c4a11628f55a4df523b3ef60405160405180910390a45050565b6007805490506008600083815260200190815260200160002081905550600781908060018154018082558091505090600182039060005260206000200160009091929091909150555050565b600061275a8473ffffffffffffffffffffffffffffffffffffffff16612e7c565b6127675760019050612a6d565b600060608573ffffffffffffffffffffffffffffffffffffffff168673ffffffffffffffffffffffffffffffffffffffff1663150b7a02905060e01b6127ab611a50565b898888604051602401808573ffffffffffffffffffffffffffffffffffffffff1673ffffffffffffffffffffffffffffffffffffffff1681526020018473ffffffffffffffffffffffffffffffffffffffff1673ffffffffffffffffffffffffffffffffffffffff16815260200183815260200180602001828103825283818151815260200191508051906020019080838360005b8381101561285b578082015181840152602081019050612840565b50505050905090810190601f1680156128885780820380516001836020036101000a031916815260200191505b5095505050505050604051602081830303815290604052907bffffffffffffffffffffffffffffffffffffffffffffffffffffffff19166020820180517bffffffffffffffffffffffffffffffffffffffffffffffffffffffff83818316178352505050506040518082805190602001908083835b6020831061292057805182526020820191506020810190506020830392506128fd565b6001836020036101000a0380198251168184511680821785525050505050509050019150506000604051808303816000865af19150503d8060008114612982576040519150601f19603f3d011682016040523d82523d6000602084013e612987565b606091505b5091509150816129f5576000815111156129a45780518082602001fd5b6040517f08c379a000000000000000000000000000000000000000000000000000000000815260040180806020018281038252603281526020018061303f6032913960400191505060405180910390fd5b6000818060200190516020811015612a0c57600080fd5b8101908080519060200190929190505050905063150b7a0260e01b7bffffffffffffffffffffffffffffffffffffffffffffffffffffffff1916817bffffffffffffffffffffffffffffffffffffffffffffffffffffffff19161493505050505b949350505050565b6060808690506060869050606086905060608690506060869050606081518351855187518951010101016040519080825280601f01601f191660200182016040528015612ad15781602001600182028038833980820191505090505b5090506060819050600080905060008090505b8851811015612b5257888181518110612af957fe5b602001015160f81c60f81b838380600101945081518110612b1657fe5b60200101907effffffffffffffffffffffffffffffffffffffffffffffffffffffffffffff1916908160001a9053508080600101915050612ae4565b5060008090505b8751811015612bc757878181518110612b6e57fe5b602001015160f81c60f81b838380600101945081518110612b8b57fe5b60200101907effffffffffffffffffffffffffffffffffffffffffffffffffffffffffffff1916908160001a9053508080600101915050612b59565b5060008090505b8651811015612c3c57868181518110612be357fe5b602001015160f81c60f81b838380600101945081518110612c0057fe5b60200101907effffffffffffffffffffffffffffffffffffffffffffffffffffffffffffff1916908160001a9053508080600101915050612bce565b5060008090505b8551811015612cb157858181518110612c5857fe5b602001015160f81c60f81b838380600101945081518110612c7557fe5b60200101907effffffffffffffffffffffffffffffffffffffffffffffffffffffffffffff1916908160001a9053508080600101915050612c43565b5060008090505b8451811015612d2657848181518110612ccd57fe5b602001015160f81c60f81b838380600101945081518110612cea57fe5b60200101907effffffffffffffffffffffffffffffffffffffffffffffffffffffffffffff1916908160001a9053508080600101915050612cb8565b50819850505050505050505095945050505050565b600073ffffffffffffffffffffffffffffffffffffffff166002600083815260200190815260200160002060009054906101000a900473ffffffffffffffffffffffffffffffffffffffff1673ffffffffffffffffffffffffffffffffffffffff1614612df65760006002600083815260200190815260200160002060006101000a81548173ffffffffffffffffffffffffffffffffffffffff021916908373ffffffffffffffffffffffffffffffffffffffff1602179055505b50565b612e1160018260000154612e3290919063ffffffff16565b816000018190555050565b6001816000016000828254019250508190555050565b6000612e7483836040518060400160405280601e81526020017f536166654d6174683a207375627472616374696f6e206f766572666c6f770000815250612ec7565b905092915050565b60008060007fc5d2460186f7233c927e7db2dcc703c0e500b653ca82273b7bfad8045d85a47060001b9050833f9150808214158015612ebe57506000801b8214155b92505050919050565b6000838311158290612f74576040517f08c379a00000000000000000000000000000000000000000000000000000000081526004018080602001828103825283818151815260200191508051906020019080838360005b83811015612f39578082015181840152602081019050612f1e565b50505050905090810190601f168015612f665780820380516001836020036101000a031916815260200191505b509250505060405180910390fd5b5060008385039050809150509392505050565b815481835581811115612fae57818360005260206000209182019101612fad9190612fb3565b5b505050565b612fd591905b80821115612fd1576000816000905550600101612fb9565b5090565b9056fe68747470733a2f2f6372656174757265732d6170692e6f70656e7365612e696f2f636f6e74726163742f6f70656e7365612d637265617475726573455243373231456e756d657261626c653a206f776e657220696e646578206f7574206f6620626f756e64734552433732313a207472616e7366657220746f206e6f6e20455243373231526563656976657220696d706c656d656e7465724f776e61626c653a206e6577206f776e657220697320746865207a65726f206164647265737368747470733a2f2f6372656174757265732d6170692e6f70656e7365612e696f2f6170692f63726561747572652f4552433732313a207472616e7366657220746f20746865207a65726f20616464726573734552433732313a206f70657261746f7220717565727920666f72206e6f6e6578697374656e7420746f6b656e4552433732313a20617070726f76652063616c6c6572206973206e6f74206f776e6572206e6f7220617070726f76656420666f7220616c6c4552433732313a2062616c616e636520717565727920666f7220746865207a65726f20616464726573734552433732313a206f776e657220717565727920666f72206e6f6e6578697374656e7420746f6b656e4552433732313a20617070726f76656420717565727920666f72206e6f6e6578697374656e7420746f6b656e4552433732313a207472616e73666572206f6620746f6b656e2074686174206973206e6f74206f776e4552433732313a20617070726f76616c20746f2063757272656e74206f776e65724552433732313a207472616e736665722063616c6c6572206973206e6f74206f776e6572206e6f7220617070726f766564455243373231456e756d657261626c653a20676c6f62616c20696e646578206f7574206f6620626f756e6473a265627a7a72315820bfb791d8b2bec2616767530dfe90f013ca6620c084e9d80c2f92940ab212aa9664736f6c63430005110032",
    "source": "pragma solidity ^0.5.0;\n\nimport \"./ERC721Tradable.sol\";\nimport \"openzeppelin-solidity/contracts/ownership/Ownable.sol\";\n\n/**\n * @title Creature\n * Creature - a contract for my non-fungible creatures.\n */\ncontract Creature is ERC721Tradable {\n    constructor(address _proxyRegistryAddress)\n        public\n        ERC721Tradable(\"Creature\", \"OSC\", _proxyRegistryAddress)\n    {}\n\n    function baseTokenURI() public pure returns (string memory) {\n        return \"https://creatures-api.opensea.io/api/creature/\";\n    }\n\n    function contractURI() public pure returns (string memory) {\n        return \"https://creatures-api.opensea.io/contract/opensea-creatures\";\n    }\n}\n",
    "sourcePath": "/home/benji/work/opensea/opensea-creatures/contracts/Creature.sol",
    "compiler": {
        "name": "solc",
        "version": "0.5.17+commit.d19bba13.Emscripten.clang"
    },
    "schemaVersion": "3.3.3",
    "updatedAt": "2021-02-09T08:26:30.726Z",
    "networkType": "ethereum",
    "devdoc": {
        "methods": {
            "approve(address,uint256)": {
                "details": "Approves another address to transfer the given token ID The zero address indicates there is no approved address. There can only be one approved address per token at a given time. Can only be called by the token owner or an approved operator.",
                "params": {
                    "to": "address to be approved for the given token ID",
                    "tokenId": "uint256 ID of the token to be approved"
                }
            },
            "balanceOf(address)": {
                "details": "Gets the balance of the specified address.",
                "params": {
                    "owner": "address to query the balance of"
                },
                "return": "uint256 representing the amount owned by the passed address"
            },
            "baseURI()": {
                "details": "Returns the base URI set via {_setBaseURI}. This will be automatically added as a preffix in {tokenURI} to each token's URI, when they are non-empty.    * _Available since v2.5.0._"
            },
            "getApproved(uint256)": {
                "details": "Gets the approved address for a token ID, or zero if no address set Reverts if the token ID does not exist.",
                "params": {
                    "tokenId": "uint256 ID of the token to query the approval of"
                },
                "return": "address currently approved for the given token ID"
            },
            "isOwner()": {
                "details": "Returns true if the caller is the current owner."
            },
            "mintTo(address)": {
                "details": "Mints a token to an address with a tokenURI.",
                "params": {
                    "_to": "address of the future owner of the token"
                }
            },
            "name()": {
                "details": "Gets the token name.",
                "return": "string representing the token name"
            },
            "owner()": {
                "details": "Returns the address of the current owner."
            },
            "ownerOf(uint256)": {
                "details": "Gets the owner of the specified token ID.",
                "params": {
                    "tokenId": "uint256 ID of the token to query the owner of"
                },
                "return": "address currently marked as the owner of the given token ID"
            },
            "renounceOwnership()": {
                "details": "Leaves the contract without owner. It will not be possible to call `onlyOwner` functions anymore. Can only be called by the current owner.     * NOTE: Renouncing ownership will leave the contract without an owner, thereby removing any functionality that is only available to the owner."
            },
            "safeTransferFrom(address,address,uint256)": {
                "details": "Safely transfers the ownership of a given token ID to another address If the target address is a contract, it must implement {IERC721Receiver-onERC721Received}, which is called upon a safe transfer, and return the magic value `bytes4(keccak256(\"onERC721Received(address,address,uint256,bytes)\"))`; otherwise, the transfer is reverted. Requires the msg.sender to be the owner, approved, or operator",
                "params": {
                    "from": "current owner of the token",
                    "to": "address to receive the ownership of the given token ID",
                    "tokenId": "uint256 ID of the token to be transferred"
                }
            },
            "safeTransferFrom(address,address,uint256,bytes)": {
                "details": "Safely transfers the ownership of a given token ID to another address If the target address is a contract, it must implement {IERC721Receiver-onERC721Received}, which is called upon a safe transfer, and return the magic value `bytes4(keccak256(\"onERC721Received(address,address,uint256,bytes)\"))`; otherwise, the transfer is reverted. Requires the _msgSender() to be the owner, approved, or operator",
                "params": {
                    "_data": "bytes data to send along with a safe transfer check",
                    "from": "current owner of the token",
                    "to": "address to receive the ownership of the given token ID",
                    "tokenId": "uint256 ID of the token to be transferred"
                }
            },
            "setApprovalForAll(address,bool)": {
                "details": "Sets or unsets the approval of a given operator An operator is allowed to transfer all tokens of the sender on their behalf.",
                "params": {
                    "approved": "representing the status of the approval to be set",
                    "to": "operator address to set the approval"
                }
            },
            "supportsInterface(bytes4)": {
                "details": "See {IERC165-supportsInterface}.     * Time complexity O(1), guaranteed to always use less than 30 000 gas."
            },
            "symbol()": {
                "details": "Gets the token symbol.",
                "return": "string representing the token symbol"
            },
            "tokenByIndex(uint256)": {
                "details": "Gets the token ID at a given index of all the tokens in this contract Reverts if the index is greater or equal to the total number of tokens.",
                "params": {
                    "index": "uint256 representing the index to be accessed of the tokens list"
                },
                "return": "uint256 token ID at the given index of the tokens list"
            },
            "tokenOfOwnerByIndex(address,uint256)": {
                "details": "Gets the token ID at a given index of the tokens list of the requested owner.",
                "params": {
                    "index": "uint256 representing the index to be accessed of the requested tokens list",
                    "owner": "address owning the tokens list to be accessed"
                },
                "return": "uint256 token ID at the given index of the tokens list owned by the requested address"
            },
            "totalSupply()": {
                "details": "Gets the total amount of tokens stored by the contract.",
                "return": "uint256 representing the total amount of tokens"
            },
            "transferFrom(address,address,uint256)": {
                "details": "Transfers the ownership of a given token ID to another address. Usage of this method is discouraged, use {safeTransferFrom} whenever possible. Requires the msg.sender to be the owner, approved, or operator.",
                "params": {
                    "from": "current owner of the token",
                    "to": "address to receive the ownership of the given token ID",
                    "tokenId": "uint256 ID of the token to be transferred"
                }
            },
            "transferOwnership(address)": {
                "details": "Transfers ownership of the contract to a new account (`newOwner`). Can only be called by the current owner."
            }
        },
        "title": "Creature Creature - a contract for my non-fungible creatures."
    },
    "userdoc": {
        "methods": {
            "isApprovedForAll(address,address)": {
                "notice": "Override isApprovedForAll to whitelist user's OpenSea proxy accounts to enable gas-less listings."
            }
        }
    }
}